{
  "contractName": "DummyChainValidator",
  "abi": [
    {
      "constant": false,
      "inputs": [
        {
          "name": "hash",
          "type": "bytes32"
        },
        {
          "name": "sig",
          "type": "bytes"
        },
        {
          "name": "signer",
          "type": "address"
        }
      ],
      "name": "ecverify",
      "outputs": [
        {
          "name": "",
          "type": "bool"
        }
      ],
      "payable": false,
      "stateMutability": "nonpayable",
      "type": "function"
    },
    {
      "constant": false,
      "inputs": [
        {
          "name": "hash",
          "type": "bytes32"
        },
        {
          "name": "sig",
          "type": "bytes"
        }
      ],
      "name": "ecrecovery",
      "outputs": [
        {
          "name": "",
          "type": "bool"
        },
        {
          "name": "",
          "type": "address"
        }
      ],
      "payable": false,
      "stateMutability": "nonpayable",
      "type": "function"
    },
    {
      "constant": false,
      "inputs": [
        {
          "name": "hash",
          "type": "bytes32"
        },
        {
          "name": "sig",
          "type": "bytes32[3]"
        }
      ],
      "name": "ecrecovery32",
      "outputs": [
        {
          "name": "",
          "type": "bool"
        },
        {
          "name": "",
          "type": "address"
        }
      ],
      "payable": false,
      "stateMutability": "nonpayable",
      "type": "function"
    },
    {
      "constant": false,
      "inputs": [
        {
          "name": "vesting",
          "type": "uint256"
        },
        {
          "name": "participant",
          "type": "address"
        }
      ],
      "name": "check_participant",
      "outputs": [
        {
          "name": "",
          "type": "bool"
        }
      ],
      "payable": false,
      "stateMutability": "nonpayable",
      "type": "function"
    },
    {
      "constant": false,
      "inputs": [
        {
          "name": "data",
          "type": "bytes"
        }
      ],
      "name": "check_notary_data",
      "outputs": [
        {
          "name": "sigs",
          "type": "address[]"
        }
      ],
      "payable": false,
      "stateMutability": "nonpayable",
      "type": "function"
    }
  ],
  "bytecode": "0x608060405234801561001057600080fd5b506106ff806100206000396000f3fe608060405234801561001057600080fd5b5060043610610074576000357c01000000000000000000000000000000000000000000000000000000009004806339cdde321461007957806361fda0481461017657806377d32e94146101dc578063a39a762f146102ec578063a6587c97146103a6575b600080fd5b61015c6004803603606081101561008f57600080fd5b8101908080359060200190929190803590602001906401000000008111156100b657600080fd5b8201836020820111156100c857600080fd5b803590602001918460018302840111640100000000831117156100ea57600080fd5b91908080601f016020809104026020016040519081016040528093929190818152602001838380828437600081840152601f19601f820116905080830192505050505050509192919290803573ffffffffffffffffffffffffffffffffffffffff1690602001909291905050506104b6565b604051808215151515815260200191505060405180910390f35b6101c26004803603604081101561018c57600080fd5b8101908080359060200190929190803573ffffffffffffffffffffffffffffffffffffffff169060200190929190505050610517565b604051808215151515815260200191505060405180910390f35b61029f600480360360408110156101f257600080fd5b81019080803590602001909291908035906020019064010000000081111561021957600080fd5b82018360208201111561022b57600080fd5b8035906020019184600183028401116401000000008311171561024d57600080fd5b91908080601f016020809104026020016040519081016040528093929190818152602001838380828437600081840152601f19601f820116905080830192505050505050509192919290505050610537565b60405180831515151581526020018273ffffffffffffffffffffffffffffffffffffffff1673ffffffffffffffffffffffffffffffffffffffff1681526020019250505060405180910390f35b6103596004803603608081101561030257600080fd5b810190808035906020019092919080606001906003806020026040519081016040528092919082600360200280828437600081840152601f19601f82011690508083019250505050505091929192905050506105d1565b60405180831515151581526020018273ffffffffffffffffffffffffffffffffffffffff1673ffffffffffffffffffffffffffffffffffffffff1681526020019250505060405180910390f35b61045f600480360360208110156103bc57600080fd5b81019080803590602001906401000000008111156103d957600080fd5b8201836020820111156103eb57600080fd5b8035906020019184600183028401116401000000008311171561040d57600080fd5b91908080601f016020809104026020016040519081016040528093929190818152602001838380828437600081840152601f19601f820116905080830192505050505050509192919290505050610688565b6040518080602001828103825283818151815260200191508051906020019060200280838360005b838110156104a2578082015181840152602081019050610487565b505050509050019250505060405180910390f35b60008060006104c58686610537565b80925081935050506001151582151514801561050c57508373ffffffffffffffffffffffffffffffffffffffff168173ffffffffffffffffffffffffffffffffffffffff16145b925050509392505050565b60006103fa83111561052c5760019050610531565b600090505b92915050565b60008060008060006041865114151561055c57600080809050945094505050506105ca565b6020860151925060408601519150606086015160001a9050601b8160ff16101561058757601b810190505b601b8160ff161415801561059f5750601c8160ff1614155b156105b657600080809050945094505050506105ca565b6105c28782858561068f565b945094505050505b9250929050565b60008060008060008560006003811015156105e857fe5b602002015192508560016003811015156105fe57fe5b6020020151915085600260038110151561061457fe5b6020020151600190049050601b81101561062f57601b810190505b601b8114156106515761064587601b858561068f565b94509450505050610681565b601c8114156106735761066787601c858561068f565b94509450505050610681565b600080809050945094505050505b9250929050565b6060919050565b60008060008060405188815287602082015286604082015285606082015260208160808360006001610bb8f19250805191505081819350935050509450949250505056fea165627a7a72305820ebabe45649bc81bfdcc13b35f4106ad6071f117fb34fb43ff3e4fcd00e4e387e0029",
  "source": "\npragma solidity >=0.5.4;\n//pragma experimental ABIEncoderV2;\nimport \"contracts/ECVerify.sol\";\n\n\ninterface ChainValidator{\n   function check_participant(uint vesting, address participant) external returns (bool);\n   function check_notary_data(bytes calldata data) external returns (address[] memory);  \n}\n\ncontract DummyChainValidator is ChainValidator, ECVerify{\n   function check_participant(uint vesting, address participant) public returns (bool){\n      if(vesting > 100*10^18 )\n         return true;\n      return false;\n   }\n\n   function check_notary_data(bytes memory data) public returns (address[] memory sigs){\n/*      bytes32 hash;\n      int data_pointer = 32;//first 32 bytes is array length\n      require( data.length % 65 == 32 );\n      uint sig_count = (data.length - 32)/65;\n\n      sigs = new address[](sig_count);\n      assembly {\n         hash := mload(add(data, data_pointer))\n      }\n      data_pointer +=32;\n      \n      for(uint i =0; i<sig_count; i++) {\n         bytes32 r;\n         bytes32 s;\n         uint8 v;\n         assembly{\n            r := mload(add(data, data_pointer))\n            data_pointer := add(data_pointer,32)\n            s := mload(add(data, data_pointer))\n            data_pointer := add(data_pointer,32)\n            v := byte(0, mload(add(data, data_pointer)))\n            data_pointer := add(data_pointer, 1)\n         }\n         data_pointer += 65;\n         if (v < 27)\n         v += 27;\n         if (v != 27 && v != 28) {\n            sigs[i] = address(0);\n         } else {\n            bool recovered;\n            (recovered, sigs[i]) = safer_ecrecover(hash, v,r,s);\n         }\n      }*/\n   }\n\n}\n\ninterface ERC20{\n   function totalSupply() external view returns (uint);\n   function balanceOf(address tokenOwner) external view returns (uint balance);\n   function allowance(address tokenOwner, address spender) external view returns (uint remaining);\n   function transfer(address to, uint tokens) external returns (bool success);\n   function approve(address spender, uint tokens) external returns (bool success);\n   function transferFrom(address from, address to, uint tokens) external returns (bool success);\n   event Transfer(address indexed from, address indexed to, uint tokens);\n   event Approval(address indexed tokenOwner, address indexed spender, uint tokens);\n}\n\ncontract TestToken is ERC20{\n   mapping(address => uint) _holding;\n   mapping(address => mapping(address => uint)) _allowances;\n   uint _totalSupply;\n   string public constant symbol = \"LIT\";\n   uint8 public constant decimals = 18;\n\n   function totalSupply() public view returns (uint){\n      return _totalSupply;\n   }\n\n   function balanceOf(address tokenOwner) public view returns (uint balance){\n      return _holding[tokenOwner];\n   }\n\n   function allowance(address tokenOwner, address spender) public view returns (uint remaining){\n      return _allowances[tokenOwner][spender];\n   }\n\n   function transfer(address to, uint tokens) public returns (bool success){\n      require( _holding[msg.sender] >= tokens );\n      _holding[msg.sender] -= tokens;\n      _holding[to] += tokens;\n      emit Transfer(msg.sender, to, tokens);\n      return true;\n   }\n   \n   function approve(address spender, uint tokens) public returns (bool success){\n      _allowances[msg.sender][spender] = tokens;\n      emit Approval(msg.sender, spender, tokens);\n      return true;\n   }\n\n   function transferFrom(address from, address to, uint tokens) public returns (bool success){\n      require( _allowances[from][msg.sender] >= tokens );\n      _holding[from] -= tokens;\n      _holding[to] += tokens;\n      emit Transfer(from, to, tokens);\n      return true;\n   }\n   \n   function mint(address to, uint tokens) public{\n      _holding[to] += tokens;\n      _totalSupply += tokens;\n   }\n\n}\n\ncontract LitionRegistry{\n   event NewChain(uint id, string description);\n   event NewChainEndpoint(uint id, string endpoint);\n   event Deposit(uint indexed chain_id, uint deposit, address indexed depositer, uint256 datetime);\n   event Vesting(uint indexed chain_id, uint deposit, address indexed depositer, uint256 datetime);\n   event StartMining(uint indexed chain_id, address miner);\n   event StopMining(uint indexed chain_id, address miner);\n\n   ERC20 token;\n   struct user_details{\n      bool active;\n      bool mining;\n      uint vesting;\n      uint deposit;\n      string endpoint;\n   }\n\n   struct chain_info{\n      bool active;\n      mapping(address => user_details) users;\n      uint last_notary;\n      ChainValidator validator;\n      uint total_vesting;\n   }\n\n   mapping(uint256 => chain_info) public chains;\n   uint256 public next_id = 0;\n   \n   constructor(ERC20 _token) public {\n      token = _token;\n   }\n\n   struct signature {\n      uint8 v; bytes32 r; bytes32 s;\n   }\n\n   function register_chain( string calldata info, ChainValidator validator, uint vesting, string calldata init_endpoint ) external returns ( uint256 id ){\n      require( bytes(init_endpoint).length > 0 );\n      id = next_id;\n      chains[id].validator = validator;\n      chains[id].active = true;\n      chains[id].last_notary = 0;\n      chains[id].users[msg.sender].active = true;\n      chains[id].users[msg.sender].endpoint = init_endpoint;\n      emit NewChain( id, info );\n      _vest_in_chain( id, vesting, msg.sender );\n      emit NewChainEndpoint( id, init_endpoint );\n      next_id++;\n   }\n\n   function vest_in_chain( uint id, uint vesting ) public {\n      _vest_in_chain( id, vesting, msg.sender );\n   }\n\n   function has_vested( uint id, address user) view external returns (bool){\n      return chains[id].users[user].vesting > 0; \n   }\n\n   function has_deposited( uint id, address user) view external returns (bool){\n      return chains[id].users[user].deposit > 0; \n   }\n\n   function notary(uint id, uint32 notary_block, address[] memory miners, uint32[] memory blocks_mined, address[] memory users, uint32[] memory user_gas, uint32 largest_tx, bytes memory notary_data) public{\n      //first, calculate hash from miners, block_mined, users and user_gas \n      //then, do ec_recover of the signatures to determine signers\n      //check if there is enough signers (total vesting of signers > 50% of all vestings)\n      //then, calculate reward\n      chain_info storage chain = chains[id];\n      require(chain.active, \"Trying to report about non-existing chain\");\n\n      uint involved_vesting = 0;\n\n      address[] memory miners_in_notary = chains[id].validator.check_notary_data(notary_data);\n      for (uint i=0; i<miners_in_notary.length; i++){\n         involved_vesting += chain.users[miners_in_notary[i]].vesting;\n      }\n\n//      require(involved_vesting * 3/2 > chain.total_vesting);\n\n      uint total_gas = 0; \n      uint total_cost = 0;\n      //largest tx fixed at 0.1 LIT - rework that to work with current price\n      uint largest_reward = 10**17;\n      \n      for(uint i = 0; i < users.length; i++){\n         total_gas +=user_gas[i];\n         uint user_cost = (user_gas[i] / largest_tx) * largest_reward;\n         if( user_cost > chain.users[users[i]].deposit ) \n            user_cost = chain.users[users[i]].deposit;\n         chain.users[users[i]].deposit -= user_cost;   \n         total_cost += user_cost;\n      }\n      \n      for( uint i = 0; i < miners.length - 1; i++ ){\n         uint miner_reward = blocks_mined[i] * total_cost / (notary_block - chain.last_notary);\n         token.transfer( miners[i], miner_reward );\n         total_cost -= miner_reward;\n      }\n      \n      chain.last_notary = notary_block;\n\n      token.transfer( miners[miners.length - 1], total_cost );\n\n   }\n\n   //TODO - rework so withdrawals are not processed immediatelly but after notary window\n   function _vest_in_chain( uint id, uint vesting, address user ) private {\n      if(vesting > 0 ){\n         require( chains[id].active, \"can't vest into non-existing chain\" );\n         require( chains[id].validator.check_participant( vesting, user ), \"user does not meet chain criteria\");\n      }\n      if( chains[id].users[user].vesting > vesting ){\n         uint to_withdraw = chains[id].users[user].vesting - vesting;\n         chains[id].total_vesting -= to_withdraw; //TODO - safe math here;\n         token.transfer( user, to_withdraw);\n      }else{\n         uint to_deposit = vesting - chains[id].users[user].vesting;\n         chains[id].total_vesting += to_deposit;\n         token.transferFrom( user, address(this), to_deposit);\n      }\n      chains[id].users[user].vesting = vesting;\n      emit Vesting( id, vesting, user, now ); \n   }\n\n   function deposit_in_chain( uint id, uint deposit ) public {\n      _deposit_in_chain(id, deposit, msg.sender );\n   }\n   \n   //TODO - rework so withdrawals are not processed immediatelly but after notary window\n   function _deposit_in_chain( uint id, uint deposit, address user ) private {\n      if(deposit > 0){\n         require( chains[id].active, \"can't deposit into non-existing chain\" );\n      }\n      if( chains[id].users[user].deposit > deposit ){\n         uint to_withdraw = chains[id].users[user].deposit - deposit;\n         token.transfer( user, to_withdraw);\n      }else{\n         uint to_deposit = deposit - chains[id].users[user].deposit;\n         token.transferFrom(user, address(this), to_deposit);\n      }\n      chains[id].users[user].deposit = deposit;\n      emit Deposit(id, deposit, user, now);\n   }\n   \n   function start_mining(uint id) public {\n      require(chains[id].active);\n      require(chains[id].users[msg.sender].vesting > 0);\n      chains[id].users[msg.sender].mining = true;\n      emit StartMining(id, msg.sender);\n   }\n \n   function stop_mining(uint id) public {\n      require(chains[id].active);\n      require(chains[id].users[msg.sender].vesting > 0);\n      chains[id].users[msg.sender].mining = false;\n      emit StopMining(id, msg.sender);\n   }\n   \n\n}\n",
  "sourcePath": "/Users/ejossev/working/lition/lition_contracts/contracts/Registration.sol",
  "compiler": {
    "name": "solc",
    "version": "0.5.4+commit.9549d8ff.Emscripten.clang"
  },
  "schemaVersion": "3.0.10",
  "updatedAt": "2019-07-09T17:42:44.167Z",
  "devdoc": {
    "methods": {}
  },
  "userdoc": {
    "methods": {}
  }
}