{
  "contractName": "ECVerify",
  "abi": [
    {
      "constant": false,
      "inputs": [
        {
          "name": "hash",
          "type": "bytes32"
        },
        {
          "name": "sig",
          "type": "bytes"
        }
      ],
      "name": "ecrecovery",
      "outputs": [
        {
          "name": "",
          "type": "bool"
        },
        {
          "name": "",
          "type": "address"
        }
      ],
      "payable": false,
      "stateMutability": "nonpayable",
      "type": "function"
    },
    {
      "constant": false,
      "inputs": [
        {
          "name": "hash",
          "type": "bytes32"
        },
        {
          "name": "sig",
          "type": "bytes32[3]"
        }
      ],
      "name": "ecrecovery32",
      "outputs": [
        {
          "name": "",
          "type": "bool"
        },
        {
          "name": "",
          "type": "address"
        }
      ],
      "payable": false,
      "stateMutability": "nonpayable",
      "type": "function"
    },
    {
      "constant": false,
      "inputs": [
        {
          "name": "hash",
          "type": "bytes32"
        },
        {
          "name": "sig",
          "type": "bytes"
        },
        {
          "name": "signer",
          "type": "address"
        }
      ],
      "name": "ecverify",
      "outputs": [
        {
          "name": "",
          "type": "bool"
        }
      ],
      "payable": false,
      "stateMutability": "nonpayable",
      "type": "function"
    }
  ],
  "bytecode": "0x608060405234801561001057600080fd5b5061054c806100206000396000f3fe608060405234801561001057600080fd5b506004361061005e576000357c01000000000000000000000000000000000000000000000000000000009004806339cdde321461006357806377d32e9414610160578063a39a762f14610270575b600080fd5b6101466004803603606081101561007957600080fd5b8101908080359060200190929190803590602001906401000000008111156100a057600080fd5b8201836020820111156100b257600080fd5b803590602001918460018302840111640100000000831117156100d457600080fd5b91908080601f016020809104026020016040519081016040528093929190818152602001838380828437600081840152601f19601f820116905080830192505050505050509192919290803573ffffffffffffffffffffffffffffffffffffffff16906020019092919050505061032a565b604051808215151515815260200191505060405180910390f35b6102236004803603604081101561017657600080fd5b81019080803590602001909291908035906020019064010000000081111561019d57600080fd5b8201836020820111156101af57600080fd5b803590602001918460018302840111640100000000831117156101d157600080fd5b91908080601f016020809104026020016040519081016040528093929190818152602001838380828437600081840152601f19601f82011690508083019250505050505050919291929050505061038b565b60405180831515151581526020018273ffffffffffffffffffffffffffffffffffffffff1673ffffffffffffffffffffffffffffffffffffffff1681526020019250505060405180910390f35b6102dd6004803603608081101561028657600080fd5b810190808035906020019092919080606001906003806020026040519081016040528092919082600360200280828437600081840152601f19601f8201169050808301925050505050509192919290505050610425565b60405180831515151581526020018273ffffffffffffffffffffffffffffffffffffffff1673ffffffffffffffffffffffffffffffffffffffff1681526020019250505060405180910390f35b6000806000610339868661038b565b80925081935050506001151582151514801561038057508373ffffffffffffffffffffffffffffffffffffffff168173ffffffffffffffffffffffffffffffffffffffff16145b925050509392505050565b6000806000806000604186511415156103b0576000808090509450945050505061041e565b6020860151925060408601519150606086015160001a9050601b8160ff1610156103db57601b810190505b601b8160ff16141580156103f35750601c8160ff1614155b1561040a576000808090509450945050505061041e565b610416878285856104dc565b945094505050505b9250929050565b600080600080600085600060038110151561043c57fe5b6020020151925085600160038110151561045257fe5b6020020151915085600260038110151561046857fe5b6020020151600190049050601b81101561048357601b810190505b601b8114156104a55761049987601b85856104dc565b945094505050506104d5565b601c8114156104c7576104bb87601c85856104dc565b945094505050506104d5565b600080809050945094505050505b9250929050565b60008060008060405188815287602082015286604082015285606082015260208160808360006001610bb8f19250805191505081819350935050509450949250505056fea165627a7a72305820b76a216d6f515dbbc3585ed5a4116ac9baea60a939bb9bd086e949e2fda7a4ef0029",
  "source": "pragma solidity >=0.5.0;\n\n\n\n//TODO: extend with https://ethereum.stackexchange.com/questions/15364/ecrecover-from-geth-and-web3-eth-sign\n\ncontract ECVerify {\n    // Duplicate Solidity's ecrecover, but catching the CALL return value\n    function safer_ecrecover(bytes32 hash, uint8 v, bytes32 r, bytes32 s) internal returns (bool, address) {\n        // We do our own memory management here. Solidity uses memory offset\n        // 0x40 to store the current end of memory. We write past it (as\n        // writes are memory extensions), but don't update the offset so\n        // Solidity will reuse it. The memory used here is only needed for\n        // this context.\n\n        // FIXME: inline assembly can't access return values\n        bool ret;\n        address addr;\n\n        assembly {\n            let size := mload(0x40)\n            mstore(size, hash)\n            mstore(add(size, 32), v)\n            mstore(add(size, 64), r)\n            mstore(add(size, 96), s)\n\n            // NOTE: we can reuse the request memory because we deal with\n            //       the return code\n            ret := call(3000, 1, 0, size, 128, size, 32)\n            addr := mload(size)\n        }\n\n        return (ret, addr);\n    }\n\n    function ecrecovery(bytes32 hash, bytes memory sig) public returns (bool, address) {\n        bytes32 r;\n        bytes32 s;\n        uint8 v;\n\n        if (sig.length != 65)\n          return (false, address(0));\n\n        // The signature format is a compact form of:\n        //   {bytes32 r}{bytes32 s}{uint8 v}\n        // Compact means, uint8 is not padded to 32 bytes.\n        assembly {\n            r := mload(add(sig, 32))\n            s := mload(add(sig, 64))\n\n            // Here we are loading the last 32 bytes. We exploit the fact that\n            // 'mload' will pad with zeroes if we overread.\n            // There is no 'mload8' to do this, but that would be nicer.\n            v := byte(0, mload(add(sig, 96)))\n\n            // Alternative solution:\n            // 'byte' is not working due to the Solidity parser, so lets\n            // use the second best option, 'and'\n            // v := and(mload(add(sig, 65)), 255)\n        }\n\n        // albeit non-transactional signatures are not specified by the YP, one would expect it\n        // to match the YP range of [27, 28]\n        //\n        // geth uses [0, 1] and some clients have followed. This might change, see:\n        //  https://github.com/ethereum/go-ethereum/issues/2053\n        if (v < 27)\n          v += 27;\n\n        if (v != 27 && v != 28)\n            return (false, address(0));\n\n        return safer_ecrecover(hash, v, r, s);\n    }\n\n    function ecrecovery32(bytes32 hash, bytes32[3] memory sig) public returns (bool, address) {\n        bytes32 r;\n        bytes32 s;\n        uint v;\n\n        r = sig[0];\n        s = sig[1];\n        v = uint(sig[2]);\n\n        if (v < 27)\n            v += 27;\n       \n        if (v == 27)\n            return safer_ecrecover(hash, 27, r, s);\n        else if (v == 28)\n            return safer_ecrecover(hash, 28, r, s);\n        else    \n            return (false, address(0));\n    }\n\n    function ecverify(bytes32 hash, bytes memory sig, address signer) public returns (bool) {\n        bool ret;\n        address addr;\n        (ret, addr) = ecrecovery(hash, sig);\n        return ret == true && addr == signer;\n    }\n}\n\n\n",
  "sourcePath": "/Users/ejossev/working/lition/lition_contracts/contracts/ECVerify.sol",
  "compiler": {
    "name": "solc",
    "version": "0.5.4+commit.9549d8ff.Emscripten.clang"
  },
  "schemaVersion": "3.0.10",
  "updatedAt": "2019-06-30T14:39:41.277Z",
  "devdoc": {
    "methods": {}
  },
  "userdoc": {
    "methods": {}
  }
}