{
  "contractName": "LitionRegistry",
  "abi": [
    {
      "constant": true,
      "inputs": [
        {
          "name": "",
          "type": "uint256"
        }
      ],
      "name": "chains",
      "outputs": [
        {
          "name": "active",
          "type": "bool"
        },
        {
          "name": "last_notary",
          "type": "uint256"
        },
        {
          "name": "validator",
          "type": "address"
        },
        {
          "name": "total_vesting",
          "type": "uint256"
        }
      ],
      "payable": false,
      "stateMutability": "view",
      "type": "function"
    },
    {
      "constant": true,
      "inputs": [],
      "name": "next_id",
      "outputs": [
        {
          "name": "",
          "type": "uint256"
        }
      ],
      "payable": false,
      "stateMutability": "view",
      "type": "function"
    },
    {
      "inputs": [
        {
          "name": "_token",
          "type": "address"
        }
      ],
      "payable": false,
      "stateMutability": "nonpayable",
      "type": "constructor"
    },
    {
      "anonymous": false,
      "inputs": [
        {
          "indexed": false,
          "name": "id",
          "type": "uint256"
        },
        {
          "indexed": false,
          "name": "description",
          "type": "string"
        }
      ],
      "name": "NewChain",
      "type": "event"
    },
    {
      "anonymous": false,
      "inputs": [
        {
          "indexed": false,
          "name": "id",
          "type": "uint256"
        },
        {
          "indexed": false,
          "name": "endpoint",
          "type": "string"
        }
      ],
      "name": "NewChainEndpoint",
      "type": "event"
    },
    {
      "anonymous": false,
      "inputs": [
        {
          "indexed": true,
          "name": "chain_id",
          "type": "uint256"
        },
        {
          "indexed": false,
          "name": "deposit",
          "type": "uint256"
        },
        {
          "indexed": true,
          "name": "depositer",
          "type": "address"
        },
        {
          "indexed": false,
          "name": "datetime",
          "type": "uint256"
        }
      ],
      "name": "Deposit",
      "type": "event"
    },
    {
      "anonymous": false,
      "inputs": [
        {
          "indexed": true,
          "name": "chain_id",
          "type": "uint256"
        },
        {
          "indexed": false,
          "name": "deposit",
          "type": "uint256"
        },
        {
          "indexed": true,
          "name": "depositer",
          "type": "address"
        },
        {
          "indexed": false,
          "name": "datetime",
          "type": "uint256"
        }
      ],
      "name": "Vesting",
      "type": "event"
    },
    {
      "anonymous": false,
      "inputs": [
        {
          "indexed": true,
          "name": "chain_id",
          "type": "uint256"
        },
        {
          "indexed": false,
          "name": "miner",
          "type": "address"
        }
      ],
      "name": "StartMining",
      "type": "event"
    },
    {
      "anonymous": false,
      "inputs": [
        {
          "indexed": true,
          "name": "chain_id",
          "type": "uint256"
        },
        {
          "indexed": false,
          "name": "miner",
          "type": "address"
        }
      ],
      "name": "StopMining",
      "type": "event"
    },
    {
      "constant": false,
      "inputs": [
        {
          "name": "info",
          "type": "string"
        },
        {
          "name": "validator",
          "type": "address"
        },
        {
          "name": "vesting",
          "type": "uint256"
        },
        {
          "name": "init_endpoint",
          "type": "string"
        }
      ],
      "name": "register_chain",
      "outputs": [
        {
          "name": "id",
          "type": "uint256"
        }
      ],
      "payable": false,
      "stateMutability": "nonpayable",
      "type": "function"
    },
    {
      "constant": false,
      "inputs": [
        {
          "name": "id",
          "type": "uint256"
        },
        {
          "name": "vesting",
          "type": "uint256"
        }
      ],
      "name": "vest_in_chain",
      "outputs": [],
      "payable": false,
      "stateMutability": "nonpayable",
      "type": "function"
    },
    {
      "constant": true,
      "inputs": [
        {
          "name": "id",
          "type": "uint256"
        },
        {
          "name": "user",
          "type": "address"
        }
      ],
      "name": "has_vested",
      "outputs": [
        {
          "name": "",
          "type": "bool"
        }
      ],
      "payable": false,
      "stateMutability": "view",
      "type": "function"
    },
    {
      "constant": true,
      "inputs": [
        {
          "name": "id",
          "type": "uint256"
        },
        {
          "name": "user",
          "type": "address"
        }
      ],
      "name": "has_deposited",
      "outputs": [
        {
          "name": "",
          "type": "bool"
        }
      ],
      "payable": false,
      "stateMutability": "view",
      "type": "function"
    },
    {
      "constant": false,
      "inputs": [
        {
          "name": "id",
          "type": "uint256"
        },
        {
          "name": "notary_block",
          "type": "uint32"
        },
        {
          "name": "miners",
          "type": "address[]"
        },
        {
          "name": "blocks_mined",
          "type": "uint32[]"
        },
        {
          "name": "users",
          "type": "address[]"
        },
        {
          "name": "user_gas",
          "type": "uint32[]"
        },
        {
          "name": "largest_tx",
          "type": "uint32"
        },
        {
          "name": "notary_data",
          "type": "bytes"
        }
      ],
      "name": "notary",
      "outputs": [],
      "payable": false,
      "stateMutability": "nonpayable",
      "type": "function"
    },
    {
      "constant": false,
      "inputs": [
        {
          "name": "id",
          "type": "uint256"
        },
        {
          "name": "deposit",
          "type": "uint256"
        }
      ],
      "name": "deposit_in_chain",
      "outputs": [],
      "payable": false,
      "stateMutability": "nonpayable",
      "type": "function"
    },
    {
      "constant": false,
      "inputs": [
        {
          "name": "id",
          "type": "uint256"
        }
      ],
      "name": "start_mining",
      "outputs": [],
      "payable": false,
      "stateMutability": "nonpayable",
      "type": "function"
    },
    {
      "constant": false,
      "inputs": [
        {
          "name": "id",
          "type": "uint256"
        }
      ],
      "name": "stop_mining",
      "outputs": [],
      "payable": false,
      "stateMutability": "nonpayable",
      "type": "function"
    }
  ],
  "bytecode": "0x6080604052600060025534801561001557600080fd5b506040516020806121c18339810180604052602081101561003557600080fd5b8101908080519060200190929190505050806000806101000a81548173ffffffffffffffffffffffffffffffffffffffff021916908373ffffffffffffffffffffffffffffffffffffffff1602179055505061212b806100966000396000f3fe608060405234801561001057600080fd5b50600436106100bb576000357c010000000000000000000000000000000000000000000000000000000090048063b747bb9b11610083578063b747bb9b14610511578063b7f7968f14610577578063c87ef2fb14610683578063d647820e146106e9578063e31bfa0014610721576100bb565b80632a42c457146100c05780633a68156f146100ee578063550325b51461042457806367245c1d146104ab5780636d443d19146104d9575b600080fd5b6100ec600480360360208110156100d657600080fd5b810190808035906020019092919050505061073f565b005b610422600480360361010081101561010557600080fd5b8101908080359060200190929190803563ffffffff1690602001909291908035906020019064010000000081111561013c57600080fd5b82018360208201111561014e57600080fd5b8035906020019184602083028401116401000000008311171561017057600080fd5b919080806020026020016040519081016040528093929190818152602001838360200280828437600081840152601f19601f820116905080830192505050505050509192919290803590602001906401000000008111156101d057600080fd5b8201836020820111156101e257600080fd5b8035906020019184602083028401116401000000008311171561020457600080fd5b919080806020026020016040519081016040528093929190818152602001838360200280828437600081840152601f19601f8201169050808301925050505050505091929192908035906020019064010000000081111561026457600080fd5b82018360208201111561027657600080fd5b8035906020019184602083028401116401000000008311171561029857600080fd5b919080806020026020016040519081016040528093929190818152602001838360200280828437600081840152601f19601f820116905080830192505050505050509192919290803590602001906401000000008111156102f857600080fd5b82018360208201111561030a57600080fd5b8035906020019184602083028401116401000000008311171561032c57600080fd5b919080806020026020016040519081016040528093929190818152602001838360200280828437600081840152601f19601f820116905080830192505050505050509192919290803563ffffffff1690602001909291908035906020019064010000000081111561039c57600080fd5b8201836020820111156103ae57600080fd5b803590602001918460018302840111640100000000831117156103d057600080fd5b91908080601f016020809104026020016040519081016040528093929190818152602001838380828437600081840152601f19601f8201169050808301925050505050505091929192905050506108a8565b005b6104506004803603602081101561043a57600080fd5b8101908080359060200190929190505050610fbd565b60405180851515151581526020018481526020018373ffffffffffffffffffffffffffffffffffffffff1673ffffffffffffffffffffffffffffffffffffffff16815260200182815260200194505050505060405180910390f35b6104d7600480360360208110156104c157600080fd5b810190808035906020019092919050505061101a565b005b61050f600480360360408110156104ef57600080fd5b810190808035906020019092919080359060200190929190505050611184565b005b61055d6004803603604081101561052757600080fd5b8101908080359060200190929190803573ffffffffffffffffffffffffffffffffffffffff169060200190929190505050611193565b604051808215151515815260200191505060405180910390f35b61066d6004803603608081101561058d57600080fd5b81019080803590602001906401000000008111156105aa57600080fd5b8201836020820111156105bc57600080fd5b803590602001918460018302840111640100000000831117156105de57600080fd5b9091929391929390803573ffffffffffffffffffffffffffffffffffffffff169060200190929190803590602001909291908035906020019064010000000081111561062957600080fd5b82018360208201111561063b57600080fd5b8035906020019184600183028401116401000000008311171561065d57600080fd5b90919293919293905050506111f6565b6040518082815260200191505060405180910390f35b6106cf6004803603604081101561069957600080fd5b8101908080359060200190929190803573ffffffffffffffffffffffffffffffffffffffff16906020019092919050505061147e565b604051808215151515815260200191505060405180910390f35b61071f600480360360408110156106ff57600080fd5b8101908080359060200190929190803590602001909291905050506114e1565b005b6107296114f0565b6040518082815260200191505060405180910390f35b6001600082815260200190815260200160002060000160009054906101000a900460ff16151561076e57600080fd5b60006001600083815260200190815260200160002060010160003373ffffffffffffffffffffffffffffffffffffffff1673ffffffffffffffffffffffffffffffffffffffff168152602001908152602001600020600101541115156107d357600080fd5b600180600083815260200190815260200160002060010160003373ffffffffffffffffffffffffffffffffffffffff1673ffffffffffffffffffffffffffffffffffffffff16815260200190815260200160002060000160016101000a81548160ff021916908315150217905550807f1090e92433a132c15edc16a996682566af9d40d581e34d732ac2b3999184789233604051808273ffffffffffffffffffffffffffffffffffffffff1673ffffffffffffffffffffffffffffffffffffffff16815260200191505060405180910390a250565b6000600160008a815260200190815260200160002090508060000160009054906101000a900460ff161515610928576040517f08c379a000000000000000000000000000000000000000000000000000000000815260040180806020018281038252602981526020018061206f6029913960400191505060405180910390fd5b60008090506060600160008c815260200190815260200160002060030160009054906101000a900473ffffffffffffffffffffffffffffffffffffffff1673ffffffffffffffffffffffffffffffffffffffff1663a6587c97856040518263ffffffff167c01000000000000000000000000000000000000000000000000000000000281526004018080602001828103825283818151815260200191508051906020019080838360005b838110156109ed5780820151818401526020810190506109d2565b50505050905090810190601f168015610a1a5780820380516001836020036101000a031916815260200191505b5092505050600060405180830381600087803b158015610a3957600080fd5b505af1158015610a4d573d6000803e3d6000fd5b505050506040513d6000823e3d601f19601f820116820180604052506020811015610a7757600080fd5b810190808051640100000000811115610a8f57600080fd5b82810190506020810184811115610aa557600080fd5b8151856020820283011164010000000082111715610ac257600080fd5b5050929190505050905060008090505b8151811015610b48578360010160008383815181101515610aef57fe5b9060200190602002015173ffffffffffffffffffffffffffffffffffffffff1673ffffffffffffffffffffffffffffffffffffffff16815260200190815260200160002060010154830192508080600101915050610ad2565b5060008090506000809050600067016345785d8a0000905060008090505b8a51811015610d0a578981815181101515610b7d57fe5b9060200190602002015163ffffffff16840193506000828a63ffffffff168c84815181101515610ba957fe5b9060200190602002015163ffffffff16811515610bc257fe5b0463ffffffff160290508760010160008d84815181101515610be057fe5b9060200190602002015173ffffffffffffffffffffffffffffffffffffffff1673ffffffffffffffffffffffffffffffffffffffff16815260200190815260200160002060020154811115610c8e578760010160008d84815181101515610c4357fe5b9060200190602002015173ffffffffffffffffffffffffffffffffffffffff1673ffffffffffffffffffffffffffffffffffffffff1681526020019081526020016000206002015490505b808860010160008e85815181101515610ca357fe5b9060200190602002015173ffffffffffffffffffffffffffffffffffffffff1673ffffffffffffffffffffffffffffffffffffffff168152602001908152602001600020600201600082825403925050819055508084019350508080600101915050610b66565b5060008090505b60018d5103811015610e8257600087600201548f63ffffffff1603848e84815181101515610d3b57fe5b9060200190602002015163ffffffff1602811515610d5557fe5b0490506000809054906101000a900473ffffffffffffffffffffffffffffffffffffffff1673ffffffffffffffffffffffffffffffffffffffff1663a9059cbb8f84815181101515610da357fe5b90602001906020020151836040518363ffffffff167c0100000000000000000000000000000000000000000000000000000000028152600401808373ffffffffffffffffffffffffffffffffffffffff1673ffffffffffffffffffffffffffffffffffffffff16815260200182815260200192505050602060405180830381600087803b158015610e3357600080fd5b505af1158015610e47573d6000803e3d6000fd5b505050506040513d6020811015610e5d57600080fd5b8101908080519060200190929190505050508084039350508080600101915050610d11565b508c63ffffffff1686600201819055506000809054906101000a900473ffffffffffffffffffffffffffffffffffffffff1673ffffffffffffffffffffffffffffffffffffffff1663a9059cbb8d60018f5103815181101515610ee157fe5b90602001906020020151846040518363ffffffff167c0100000000000000000000000000000000000000000000000000000000028152600401808373ffffffffffffffffffffffffffffffffffffffff1673ffffffffffffffffffffffffffffffffffffffff16815260200182815260200192505050602060405180830381600087803b158015610f7157600080fd5b505af1158015610f85573d6000803e3d6000fd5b505050506040513d6020811015610f9b57600080fd5b8101908080519060200190929190505050505050505050505050505050505050565b60016020528060005260406000206000915090508060000160009054906101000a900460ff16908060020154908060030160009054906101000a900473ffffffffffffffffffffffffffffffffffffffff16908060040154905084565b6001600082815260200190815260200160002060000160009054906101000a900460ff16151561104957600080fd5b60006001600083815260200190815260200160002060010160003373ffffffffffffffffffffffffffffffffffffffff1673ffffffffffffffffffffffffffffffffffffffff168152602001908152602001600020600101541115156110ae57600080fd5b60006001600083815260200190815260200160002060010160003373ffffffffffffffffffffffffffffffffffffffff1673ffffffffffffffffffffffffffffffffffffffff16815260200190815260200160002060000160016101000a81548160ff021916908315150217905550807f921c933fe5d237f13ecce36e8ce6e7370d68826ed08698f6d2dd81caf298aaa333604051808273ffffffffffffffffffffffffffffffffffffffff1673ffffffffffffffffffffffffffffffffffffffff16815260200191505060405180910390a250565b61118f8282336114f6565b5050565b6000806001600085815260200190815260200160002060010160008473ffffffffffffffffffffffffffffffffffffffff1673ffffffffffffffffffffffffffffffffffffffff1681526020019081526020016000206002015411905092915050565b6000808383905011151561120957600080fd5b6002549050846001600083815260200190815260200160002060030160006101000a81548173ffffffffffffffffffffffffffffffffffffffff021916908373ffffffffffffffffffffffffffffffffffffffff160217905550600180600083815260200190815260200160002060000160006101000a81548160ff02191690831515021790555060006001600083815260200190815260200160002060020181905550600180600083815260200190815260200160002060010160003373ffffffffffffffffffffffffffffffffffffffff1673ffffffffffffffffffffffffffffffffffffffff16815260200190815260200160002060000160006101000a81548160ff02191690831515021790555082826001600084815260200190815260200160002060010160003373ffffffffffffffffffffffffffffffffffffffff1673ffffffffffffffffffffffffffffffffffffffff1681526020019081526020016000206003019190611380929190611fc9565b507fd8a08a6069bc34d54779d98bc9eaf69c8398a605b914243d592ae8e9bd94a72881888860405180848152602001806020018281038252848482818152602001925080828437600081840152601f19601f82011690508083019250505094505050505060405180910390a16113f78185336114f6565b7f0e51cb8a86e5362fecae09c9dd8b8f25ad4e35cc650cdc3fe4ec2da11bcd500481848460405180848152602001806020018281038252848482818152602001925080828437600081840152601f19601f82011690508083019250505094505050505060405180910390a16002600081548092919060010191905055509695505050505050565b6000806001600085815260200190815260200160002060010160008473ffffffffffffffffffffffffffffffffffffffff1673ffffffffffffffffffffffffffffffffffffffff1681526020019081526020016000206001015411905092915050565b6114ec828233611b39565b5050565b60025481565b60008211156116e6576001600084815260200190815260200160002060000160009054906101000a900460ff16151561157a576040517f08c379a00000000000000000000000000000000000000000000000000000000081526004018080602001828103825260228152602001806120b96022913960400191505060405180910390fd5b6001600084815260200190815260200160002060030160009054906101000a900473ffffffffffffffffffffffffffffffffffffffff1673ffffffffffffffffffffffffffffffffffffffff166361fda04883836040518363ffffffff167c0100000000000000000000000000000000000000000000000000000000028152600401808381526020018273ffffffffffffffffffffffffffffffffffffffff1673ffffffffffffffffffffffffffffffffffffffff16815260200192505050602060405180830381600087803b15801561165357600080fd5b505af1158015611667573d6000803e3d6000fd5b505050506040513d602081101561167d57600080fd5b810190808051906020019092919050505015156116e5576040517f08c379a00000000000000000000000000000000000000000000000000000000081526004018080602001828103825260218152602001806120986021913960400191505060405180910390fd5b5b816001600085815260200190815260200160002060010160008373ffffffffffffffffffffffffffffffffffffffff1673ffffffffffffffffffffffffffffffffffffffff1681526020019081526020016000206001015411156118cb576000826001600086815260200190815260200160002060010160008473ffffffffffffffffffffffffffffffffffffffff1673ffffffffffffffffffffffffffffffffffffffff168152602001908152602001600020600101540390508060016000868152602001908152602001600020600401600082825403925050819055506000809054906101000a900473ffffffffffffffffffffffffffffffffffffffff1673ffffffffffffffffffffffffffffffffffffffff1663a9059cbb83836040518363ffffffff167c0100000000000000000000000000000000000000000000000000000000028152600401808373ffffffffffffffffffffffffffffffffffffffff1673ffffffffffffffffffffffffffffffffffffffff16815260200182815260200192505050602060405180830381600087803b15801561188957600080fd5b505af115801561189d573d6000803e3d6000fd5b505050506040513d60208110156118b357600080fd5b81019080805190602001909291905050505050611a82565b60006001600085815260200190815260200160002060010160008373ffffffffffffffffffffffffffffffffffffffff1673ffffffffffffffffffffffffffffffffffffffff16815260200190815260200160002060010154830390508060016000868152602001908152602001600020600401600082825401925050819055506000809054906101000a900473ffffffffffffffffffffffffffffffffffffffff1673ffffffffffffffffffffffffffffffffffffffff166323b872dd8330846040518463ffffffff167c0100000000000000000000000000000000000000000000000000000000028152600401808473ffffffffffffffffffffffffffffffffffffffff1673ffffffffffffffffffffffffffffffffffffffff1681526020018373ffffffffffffffffffffffffffffffffffffffff1673ffffffffffffffffffffffffffffffffffffffff1681526020018281526020019350505050602060405180830381600087803b158015611a4457600080fd5b505af1158015611a58573d6000803e3d6000fd5b505050506040513d6020811015611a6e57600080fd5b810190808051906020019092919050505050505b816001600085815260200190815260200160002060010160008373ffffffffffffffffffffffffffffffffffffffff1673ffffffffffffffffffffffffffffffffffffffff168152602001908152602001600020600101819055508073ffffffffffffffffffffffffffffffffffffffff16837f538c8cde66e8496c8eccec720ba64db094e4bd703ad2b39ab1b76fff5b7998548442604051808381526020018281526020019250505060405180910390a3505050565b6000821115611bbe576001600084815260200190815260200160002060000160009054906101000a900460ff161515611bbd576040517f08c379a00000000000000000000000000000000000000000000000000000000081526004018080602001828103825260258152602001806120db6025913960400191505060405180910390fd5b5b816001600085815260200190815260200160002060010160008373ffffffffffffffffffffffffffffffffffffffff1673ffffffffffffffffffffffffffffffffffffffff168152602001908152602001600020600201541115611d7f576000826001600086815260200190815260200160002060010160008473ffffffffffffffffffffffffffffffffffffffff1673ffffffffffffffffffffffffffffffffffffffff168152602001908152602001600020600201540390506000809054906101000a900473ffffffffffffffffffffffffffffffffffffffff1673ffffffffffffffffffffffffffffffffffffffff1663a9059cbb83836040518363ffffffff167c0100000000000000000000000000000000000000000000000000000000028152600401808373ffffffffffffffffffffffffffffffffffffffff1673ffffffffffffffffffffffffffffffffffffffff16815260200182815260200192505050602060405180830381600087803b158015611d3d57600080fd5b505af1158015611d51573d6000803e3d6000fd5b505050506040513d6020811015611d6757600080fd5b81019080805190602001909291905050505050611f12565b60006001600085815260200190815260200160002060010160008373ffffffffffffffffffffffffffffffffffffffff1673ffffffffffffffffffffffffffffffffffffffff16815260200190815260200160002060020154830390506000809054906101000a900473ffffffffffffffffffffffffffffffffffffffff1673ffffffffffffffffffffffffffffffffffffffff166323b872dd8330846040518463ffffffff167c0100000000000000000000000000000000000000000000000000000000028152600401808473ffffffffffffffffffffffffffffffffffffffff1673ffffffffffffffffffffffffffffffffffffffff1681526020018373ffffffffffffffffffffffffffffffffffffffff1673ffffffffffffffffffffffffffffffffffffffff1681526020018281526020019350505050602060405180830381600087803b158015611ed457600080fd5b505af1158015611ee8573d6000803e3d6000fd5b505050506040513d6020811015611efe57600080fd5b810190808051906020019092919050505050505b816001600085815260200190815260200160002060010160008373ffffffffffffffffffffffffffffffffffffffff1673ffffffffffffffffffffffffffffffffffffffff168152602001908152602001600020600201819055508073ffffffffffffffffffffffffffffffffffffffff16837f9a2a1e97e6d641080089aafc36750cfdef4c79f8b3ace6fa4c384fa2f04769598442604051808381526020018281526020019250505060405180910390a3505050565b828054600181600116156101000203166002900490600052602060002090601f016020900481019282601f1061200a57803560ff1916838001178555612038565b82800160010185558215612038579182015b8281111561203757823582559160200191906001019061201c565b5b5090506120459190612049565b5090565b61206b91905b8082111561206757600081600090555060010161204f565b5090565b9056fe547279696e6720746f207265706f72742061626f7574206e6f6e2d6578697374696e6720636861696e7573657220646f6573206e6f74206d65657420636861696e20637269746572696163616e2774207665737420696e746f206e6f6e2d6578697374696e6720636861696e63616e2774206465706f73697420696e746f206e6f6e2d6578697374696e6720636861696ea165627a7a72305820508cf8225d73cb941cc72102c6409485396d7743c8999f13e953809ae100cf800029",
  "source": "\npragma solidity >=0.5.4;\n//pragma experimental ABIEncoderV2;\nimport \"contracts/ECVerify.sol\";\n\n\ninterface ChainValidator{\n   function check_participant(uint vesting, address participant) external returns (bool);\n   function check_notary_data(bytes calldata data) external returns (address[] memory);  \n}\n\ncontract DummyChainValidator is ChainValidator, ECVerify{\n   function check_participant(uint vesting, address participant) public returns (bool){\n      if(vesting > 100*10^18 )\n         return true;\n      return false;\n   }\n\n   function check_notary_data(bytes memory data) public returns (address[] memory sigs){\n/*      bytes32 hash;\n      int data_pointer = 32;//first 32 bytes is array length\n      require( data.length % 65 == 32 );\n      uint sig_count = (data.length - 32)/65;\n\n      sigs = new address[](sig_count);\n      assembly {\n         hash := mload(add(data, data_pointer))\n      }\n      data_pointer +=32;\n      \n      for(uint i =0; i<sig_count; i++) {\n         bytes32 r;\n         bytes32 s;\n         uint8 v;\n         assembly{\n            r := mload(add(data, data_pointer))\n            data_pointer := add(data_pointer,32)\n            s := mload(add(data, data_pointer))\n            data_pointer := add(data_pointer,32)\n            v := byte(0, mload(add(data, data_pointer)))\n            data_pointer := add(data_pointer, 1)\n         }\n         data_pointer += 65;\n         if (v < 27)\n         v += 27;\n         if (v != 27 && v != 28) {\n            sigs[i] = address(0);\n         } else {\n            bool recovered;\n            (recovered, sigs[i]) = safer_ecrecover(hash, v,r,s);\n         }\n      }*/\n   }\n\n}\n\ninterface ERC20{\n   function totalSupply() external view returns (uint);\n   function balanceOf(address tokenOwner) external view returns (uint balance);\n   function allowance(address tokenOwner, address spender) external view returns (uint remaining);\n   function transfer(address to, uint tokens) external returns (bool success);\n   function approve(address spender, uint tokens) external returns (bool success);\n   function transferFrom(address from, address to, uint tokens) external returns (bool success);\n   event Transfer(address indexed from, address indexed to, uint tokens);\n   event Approval(address indexed tokenOwner, address indexed spender, uint tokens);\n}\n\ncontract TestToken is ERC20{\n   mapping(address => uint) _holding;\n   mapping(address => mapping(address => uint)) _allowances;\n   uint _totalSupply;\n   string public constant symbol = \"LIT\";\n   uint8 public constant decimals = 18;\n\n   function totalSupply() public view returns (uint){\n      return _totalSupply;\n   }\n\n   function balanceOf(address tokenOwner) public view returns (uint balance){\n      return _holding[tokenOwner];\n   }\n\n   function allowance(address tokenOwner, address spender) public view returns (uint remaining){\n      return _allowances[tokenOwner][spender];\n   }\n\n   function transfer(address to, uint tokens) public returns (bool success){\n      require( _holding[msg.sender] >= tokens );\n      _holding[msg.sender] -= tokens;\n      _holding[to] += tokens;\n      emit Transfer(msg.sender, to, tokens);\n      return true;\n   }\n   \n   function approve(address spender, uint tokens) public returns (bool success){\n      _allowances[msg.sender][spender] = tokens;\n      emit Approval(msg.sender, spender, tokens);\n      return true;\n   }\n\n   function transferFrom(address from, address to, uint tokens) public returns (bool success){\n      require( _allowances[from][msg.sender] >= tokens );\n      _holding[from] -= tokens;\n      _holding[to] += tokens;\n      emit Transfer(from, to, tokens);\n      return true;\n   }\n   \n   function mint(address to, uint tokens) public{\n      _holding[to] += tokens;\n      _totalSupply += tokens;\n   }\n\n}\n\ncontract LitionRegistry{\n   event NewChain(uint id, string description);\n   event NewChainEndpoint(uint id, string endpoint);\n   event Deposit(uint indexed chain_id, uint deposit, address indexed depositer, uint256 datetime);\n   event Vesting(uint indexed chain_id, uint deposit, address indexed depositer, uint256 datetime);\n   event StartMining(uint indexed chain_id, address miner);\n   event StopMining(uint indexed chain_id, address miner);\n\n   ERC20 token;\n   struct user_details{\n      bool active;\n      bool mining;\n      uint vesting;\n      uint deposit;\n      string endpoint;\n   }\n\n   struct chain_info{\n      bool active;\n      mapping(address => user_details) users;\n      uint last_notary;\n      ChainValidator validator;\n      uint total_vesting;\n   }\n\n   mapping(uint256 => chain_info) public chains;\n   uint256 public next_id = 0;\n   \n   constructor(ERC20 _token) public {\n      token = _token;\n   }\n\n   struct signature {\n      uint8 v; bytes32 r; bytes32 s;\n   }\n\n   function register_chain( string calldata info, ChainValidator validator, uint vesting, string calldata init_endpoint ) external returns ( uint256 id ){\n      require( bytes(init_endpoint).length > 0 );\n      id = next_id;\n      chains[id].validator = validator;\n      chains[id].active = true;\n      chains[id].last_notary = 0;\n      chains[id].users[msg.sender].active = true;\n      chains[id].users[msg.sender].endpoint = init_endpoint;\n      emit NewChain( id, info );\n      _vest_in_chain( id, vesting, msg.sender );\n      emit NewChainEndpoint( id, init_endpoint );\n      next_id++;\n   }\n\n   function vest_in_chain( uint id, uint vesting ) public {\n      _vest_in_chain( id, vesting, msg.sender );\n   }\n\n   function has_vested( uint id, address user) view external returns (bool){\n      return chains[id].users[user].vesting > 0; \n   }\n\n   function has_deposited( uint id, address user) view external returns (bool){\n      return chains[id].users[user].deposit > 0; \n   }\n\n   function notary(uint id, uint32 notary_block, address[] memory miners, uint32[] memory blocks_mined, address[] memory users, uint32[] memory user_gas, uint32 largest_tx, bytes memory notary_data) public{\n      //first, calculate hash from miners, block_mined, users and user_gas \n      //then, do ec_recover of the signatures to determine signers\n      //check if there is enough signers (total vesting of signers > 50% of all vestings)\n      //then, calculate reward\n      chain_info storage chain = chains[id];\n      require(chain.active, \"Trying to report about non-existing chain\");\n\n      uint involved_vesting = 0;\n\n      address[] memory miners_in_notary = chains[id].validator.check_notary_data(notary_data);\n      for (uint i=0; i<miners_in_notary.length; i++){\n         involved_vesting += chain.users[miners_in_notary[i]].vesting;\n      }\n\n//      require(involved_vesting * 3/2 > chain.total_vesting);\n\n      uint total_gas = 0; \n      uint total_cost = 0;\n      //largest tx fixed at 0.1 LIT - rework that to work with current price\n      uint largest_reward = 10**17;\n      \n      for(uint i = 0; i < users.length; i++){\n         total_gas +=user_gas[i];\n         uint user_cost = (user_gas[i] / largest_tx) * largest_reward;\n         if( user_cost > chain.users[users[i]].deposit ) \n            user_cost = chain.users[users[i]].deposit;\n         chain.users[users[i]].deposit -= user_cost;   \n         total_cost += user_cost;\n      }\n      \n      for( uint i = 0; i < miners.length - 1; i++ ){\n         uint miner_reward = blocks_mined[i] * total_cost / (notary_block - chain.last_notary);\n         token.transfer( miners[i], miner_reward );\n         total_cost -= miner_reward;\n      }\n      \n      chain.last_notary = notary_block;\n\n      token.transfer( miners[miners.length - 1], total_cost );\n\n   }\n\n   //TODO - rework so withdrawals are not processed immediatelly but after notary window\n   function _vest_in_chain( uint id, uint vesting, address user ) private {\n      if(vesting > 0 ){\n         require( chains[id].active, \"can't vest into non-existing chain\" );\n         require( chains[id].validator.check_participant( vesting, user ), \"user does not meet chain criteria\");\n      }\n      if( chains[id].users[user].vesting > vesting ){\n         uint to_withdraw = chains[id].users[user].vesting - vesting;\n         chains[id].total_vesting -= to_withdraw; //TODO - safe math here;\n         token.transfer( user, to_withdraw);\n      }else{\n         uint to_deposit = vesting - chains[id].users[user].vesting;\n         chains[id].total_vesting += to_deposit;\n         token.transferFrom( user, address(this), to_deposit);\n      }\n      chains[id].users[user].vesting = vesting;\n      emit Vesting( id, vesting, user, now ); \n   }\n\n   function deposit_in_chain( uint id, uint deposit ) public {\n      _deposit_in_chain(id, deposit, msg.sender );\n   }\n   \n   //TODO - rework so withdrawals are not processed immediatelly but after notary window\n   function _deposit_in_chain( uint id, uint deposit, address user ) private {\n      if(deposit > 0){\n         require( chains[id].active, \"can't deposit into non-existing chain\" );\n      }\n      if( chains[id].users[user].deposit > deposit ){\n         uint to_withdraw = chains[id].users[user].deposit - deposit;\n         token.transfer( user, to_withdraw);\n      }else{\n         uint to_deposit = deposit - chains[id].users[user].deposit;\n         token.transferFrom(user, address(this), to_deposit);\n      }\n      chains[id].users[user].deposit = deposit;\n      emit Deposit(id, deposit, user, now);\n   }\n   \n   function start_mining(uint id) public {\n      require(chains[id].active);\n      require(chains[id].users[msg.sender].vesting > 0);\n      chains[id].users[msg.sender].mining = true;\n      emit StartMining(id, msg.sender);\n   }\n \n   function stop_mining(uint id) public {\n      require(chains[id].active);\n      require(chains[id].users[msg.sender].vesting > 0);\n      chains[id].users[msg.sender].mining = false;\n      emit StopMining(id, msg.sender);\n   }\n   \n\n}\n",
  "sourcePath": "/Users/ejossev/working/lition/lition_contracts/contracts/Registration.sol",
  "compiler": {
    "name": "solc",
    "version": "0.5.4+commit.9549d8ff.Emscripten.clang"
  },
  "schemaVersion": "3.0.10",
  "updatedAt": "2019-07-09T17:42:44.198Z",
  "devdoc": {
    "methods": {}
  },
  "userdoc": {
    "methods": {}
  }
}